{
  "contractName": "Color",
  "abi": [
    {
      "inputs": [],
      "stateMutability": "nonpayable",
      "type": "constructor"
    },
    {
      "anonymous": false,
      "inputs": [
        {
          "indexed": true,
          "internalType": "address",
          "name": "owner",
          "type": "address"
        },
        {
          "indexed": true,
          "internalType": "address",
          "name": "approved",
          "type": "address"
        },
        {
          "indexed": true,
          "internalType": "uint256",
          "name": "tokenId",
          "type": "uint256"
        }
      ],
      "name": "Approval",
      "type": "event"
    },
    {
      "anonymous": false,
      "inputs": [
        {
          "indexed": true,
          "internalType": "address",
          "name": "owner",
          "type": "address"
        },
        {
          "indexed": true,
          "internalType": "address",
          "name": "operator",
          "type": "address"
        },
        {
          "indexed": false,
          "internalType": "bool",
          "name": "approved",
          "type": "bool"
        }
      ],
      "name": "ApprovalForAll",
      "type": "event"
    },
    {
      "anonymous": false,
      "inputs": [
        {
          "indexed": true,
          "internalType": "address",
          "name": "from",
          "type": "address"
        },
        {
          "indexed": true,
          "internalType": "address",
          "name": "to",
          "type": "address"
        },
        {
          "indexed": true,
          "internalType": "uint256",
          "name": "tokenId",
          "type": "uint256"
        }
      ],
      "name": "Transfer",
      "type": "event"
    },
    {
      "inputs": [
        {
          "internalType": "string",
          "name": "",
          "type": "string"
        }
      ],
      "name": "_colorExists",
      "outputs": [
        {
          "internalType": "bool",
          "name": "",
          "type": "bool"
        }
      ],
      "stateMutability": "view",
      "type": "function"
    },
    {
      "inputs": [
        {
          "internalType": "address",
          "name": "to",
          "type": "address"
        },
        {
          "internalType": "uint256",
          "name": "tokenId",
          "type": "uint256"
        }
      ],
      "name": "approve",
      "outputs": [],
      "stateMutability": "nonpayable",
      "type": "function"
    },
    {
      "inputs": [
        {
          "internalType": "address",
          "name": "owner",
          "type": "address"
        }
      ],
      "name": "balanceOf",
      "outputs": [
        {
          "internalType": "uint256",
          "name": "",
          "type": "uint256"
        }
      ],
      "stateMutability": "view",
      "type": "function"
    },
    {
      "inputs": [
        {
          "internalType": "uint256",
          "name": "",
          "type": "uint256"
        }
      ],
      "name": "colors",
      "outputs": [
        {
          "internalType": "string",
          "name": "",
          "type": "string"
        }
      ],
      "stateMutability": "view",
      "type": "function"
    },
    {
      "inputs": [
        {
          "internalType": "uint256",
          "name": "tokenId",
          "type": "uint256"
        }
      ],
      "name": "getApproved",
      "outputs": [
        {
          "internalType": "address",
          "name": "",
          "type": "address"
        }
      ],
      "stateMutability": "view",
      "type": "function"
    },
    {
      "inputs": [
        {
          "internalType": "address",
          "name": "owner",
          "type": "address"
        },
        {
          "internalType": "address",
          "name": "operator",
          "type": "address"
        }
      ],
      "name": "isApprovedForAll",
      "outputs": [
        {
          "internalType": "bool",
          "name": "",
          "type": "bool"
        }
      ],
      "stateMutability": "view",
      "type": "function"
    },
    {
      "inputs": [],
      "name": "name",
      "outputs": [
        {
          "internalType": "string",
          "name": "",
          "type": "string"
        }
      ],
      "stateMutability": "view",
      "type": "function"
    },
    {
      "inputs": [
        {
          "internalType": "uint256",
          "name": "tokenId",
          "type": "uint256"
        }
      ],
      "name": "ownerOf",
      "outputs": [
        {
          "internalType": "address",
          "name": "",
          "type": "address"
        }
      ],
      "stateMutability": "view",
      "type": "function"
    },
    {
      "inputs": [
        {
          "internalType": "address",
          "name": "from",
          "type": "address"
        },
        {
          "internalType": "address",
          "name": "to",
          "type": "address"
        },
        {
          "internalType": "uint256",
          "name": "tokenId",
          "type": "uint256"
        }
      ],
      "name": "safeTransferFrom",
      "outputs": [],
      "stateMutability": "nonpayable",
      "type": "function"
    },
    {
      "inputs": [
        {
          "internalType": "address",
          "name": "from",
          "type": "address"
        },
        {
          "internalType": "address",
          "name": "to",
          "type": "address"
        },
        {
          "internalType": "uint256",
          "name": "tokenId",
          "type": "uint256"
        },
        {
          "internalType": "bytes",
          "name": "_data",
          "type": "bytes"
        }
      ],
      "name": "safeTransferFrom",
      "outputs": [],
      "stateMutability": "nonpayable",
      "type": "function"
    },
    {
      "inputs": [
        {
          "internalType": "address",
          "name": "operator",
          "type": "address"
        },
        {
          "internalType": "bool",
          "name": "approved",
          "type": "bool"
        }
      ],
      "name": "setApprovalForAll",
      "outputs": [],
      "stateMutability": "nonpayable",
      "type": "function"
    },
    {
      "inputs": [
        {
          "internalType": "bytes4",
          "name": "interfaceId",
          "type": "bytes4"
        }
      ],
      "name": "supportsInterface",
      "outputs": [
        {
          "internalType": "bool",
          "name": "",
          "type": "bool"
        }
      ],
      "stateMutability": "view",
      "type": "function"
    },
    {
      "inputs": [],
      "name": "symbol",
      "outputs": [
        {
          "internalType": "string",
          "name": "",
          "type": "string"
        }
      ],
      "stateMutability": "view",
      "type": "function"
    },
    {
      "inputs": [
        {
          "internalType": "uint256",
          "name": "tokenId",
          "type": "uint256"
        }
      ],
      "name": "tokenURI",
      "outputs": [
        {
          "internalType": "string",
          "name": "",
          "type": "string"
        }
      ],
      "stateMutability": "view",
      "type": "function"
    },
    {
      "inputs": [],
      "name": "totalSupply",
      "outputs": [
        {
          "internalType": "uint256",
          "name": "",
          "type": "uint256"
        }
      ],
      "stateMutability": "view",
      "type": "function"
    },
    {
      "inputs": [
        {
          "internalType": "address",
          "name": "from",
          "type": "address"
        },
        {
          "internalType": "address",
          "name": "to",
          "type": "address"
        },
        {
          "internalType": "uint256",
          "name": "tokenId",
          "type": "uint256"
        }
      ],
      "name": "transferFrom",
      "outputs": [],
      "stateMutability": "nonpayable",
      "type": "function"
    },
    {
      "inputs": [
        {
          "internalType": "string",
          "name": "_color",
          "type": "string"
        }
      ],
      "name": "mint",
      "outputs": [],
      "stateMutability": "nonpayable",
      "type": "function"
    }
  ],
  "bytecode": "0x608060405260006007553480156200001657600080fd5b50604080518082018252600c81526b21b7b637b9102834b1b5b2b960a11b602080830191825283518085019094526002845261043560f41b908401528151919291620000659160009162000084565b5080516200007b90600190602084019062000084565b50505062000167565b82805462000092906200012a565b90600052602060002090601f016020900481019282620000b6576000855562000101565b82601f10620000d157805160ff191683800117855562000101565b8280016001018555821562000101579182015b8281111562000101578251825591602001919060010190620000e4565b506200010f92915062000113565b5090565b5b808211156200010f576000815560010162000114565b600181811c908216806200013f57607f821691505b602082108114156200016157634e487b7160e01b600052602260045260246000fd5b50919050565b6117dd80620001776000396000f3fe608060405234801561001057600080fd5b506004361061011b5760003560e01c80636ab20058116100b2578063b88d4fde11610081578063c87b56dd11610066578063c87b56dd1461026f578063d85d3d2714610282578063e985e9c51461029557600080fd5b8063b88d4fde14610249578063bd11f69d1461025c57600080fd5b80636ab20058146101ed57806370a082311461021b57806395d89b411461022e578063a22cb4651461023657600080fd5b806318160ddd116100ee57806318160ddd1461019d57806323b872dd146101b457806342842e0e146101c75780636352211e146101da57600080fd5b806301ffc9a71461012057806306fdde0314610148578063081812fc1461015d578063095ea7b314610188575b600080fd5b61013361012e366004611517565b6102d1565b60405190151581526020015b60405180910390f35b610150610323565b60405161013f9190611660565b61017061016b366004611595565b6103b5565b6040516001600160a01b03909116815260200161013f565b61019b6101963660046114ee565b61044f565b005b6101a660075481565b60405190815260200161013f565b61019b6101c2366004611400565b610565565b61019b6101d5366004611400565b6105ec565b6101706101e8366004611595565b610607565b6101336101fb36600461154f565b805160208183018101805160088252928201919093012091525460ff1681565b6101a66102293660046113b4565b610692565b61015061072c565b61019b6102443660046114b4565b61073b565b61019b61025736600461143b565b610800565b61015061026a366004611595565b61088e565b61015061027d366004611595565b61093a565b61019b61029036600461154f565b610a30565b6101336102a33660046113ce565b6001600160a01b03918216600090815260056020908152604080832093909416825291909152205460ff1690565b60006001600160e01b031982166380ac58cd60e01b148061030257506001600160e01b03198216635b5e139f60e01b145b8061031d57506301ffc9a760e01b6001600160e01b03198316145b92915050565b606060008054610332906116e2565b80601f016020809104026020016040519081016040528092919081815260200182805461035e906116e2565b80156103ab5780601f10610380576101008083540402835291602001916103ab565b820191906000526020600020905b81548152906001019060200180831161038e57829003601f168201915b5050505050905090565b6000818152600260205260408120546001600160a01b03166104335760405162461bcd60e51b815260206004820152602c60248201527f4552433732313a20617070726f76656420717565727920666f72206e6f6e657860448201526b34b9ba32b73a103a37b5b2b760a11b60648201526084015b60405180910390fd5b506000908152600460205260409020546001600160a01b031690565b600061045a82610607565b9050806001600160a01b0316836001600160a01b031614156104c85760405162461bcd60e51b815260206004820152602160248201527f4552433732313a20617070726f76616c20746f2063757272656e74206f776e656044820152603960f91b606482015260840161042a565b336001600160a01b03821614806104e457506104e481336102a3565b6105565760405162461bcd60e51b815260206004820152603860248201527f4552433732313a20617070726f76652063616c6c6572206973206e6f74206f7760448201527f6e6572206e6f7220617070726f76656420666f7220616c6c0000000000000000606482015260840161042a565b6105608383610ae9565b505050565b61056f3382610b64565b6105e15760405162461bcd60e51b815260206004820152603160248201527f4552433732313a207472616e736665722063616c6c6572206973206e6f74206f60448201527f776e6572206e6f7220617070726f766564000000000000000000000000000000606482015260840161042a565b610560838383610c5b565b61056083838360405180602001604052806000815250610800565b6000818152600260205260408120546001600160a01b03168061031d5760405162461bcd60e51b815260206004820152602960248201527f4552433732313a206f776e657220717565727920666f72206e6f6e657869737460448201527f656e7420746f6b656e0000000000000000000000000000000000000000000000606482015260840161042a565b60006001600160a01b0382166107105760405162461bcd60e51b815260206004820152602a60248201527f4552433732313a2062616c616e636520717565727920666f7220746865207a6560448201527f726f206164647265737300000000000000000000000000000000000000000000606482015260840161042a565b506001600160a01b031660009081526003602052604090205490565b606060018054610332906116e2565b6001600160a01b0382163314156107945760405162461bcd60e51b815260206004820152601960248201527f4552433732313a20617070726f766520746f2063616c6c657200000000000000604482015260640161042a565b3360008181526005602090815260408083206001600160a01b03871680855290835292819020805460ff191686151590811790915590519081529192917f17307eab39ab6107e8899845ad3d59bd9653f200f220920489ca2b5937696c31910160405180910390a35050565b61080a3383610b64565b61087c5760405162461bcd60e51b815260206004820152603160248201527f4552433732313a207472616e736665722063616c6c6572206973206e6f74206f60448201527f776e6572206e6f7220617070726f766564000000000000000000000000000000606482015260840161042a565b61088884848484610e1c565b50505050565b6006818154811061089e57600080fd5b9060005260206000200160009150905080546108b9906116e2565b80601f01602080910402602001604051908101604052809291908181526020018280546108e5906116e2565b80156109325780601f1061090757610100808354040283529160200191610932565b820191906000526020600020905b81548152906001019060200180831161091557829003601f168201915b505050505081565b6000818152600260205260409020546060906001600160a01b03166109c75760405162461bcd60e51b815260206004820152602f60248201527f4552433732314d657461646174613a2055524920717565727920666f72206e6f60448201527f6e6578697374656e7420746f6b656e0000000000000000000000000000000000606482015260840161042a565b60006109de60408051602081019091526000815290565b905060008151116109fe5760405180602001604052806000815250610a29565b80610a0884610ea5565b604051602001610a199291906115f5565b6040516020818303038152906040525b9392505050565b600881604051610a4091906115d9565b9081526040519081900360200190205460ff1615610a5d57600080fd5b600680546001810182556000919091528151610aa0917ff652222313e28459528d920b65115c16c04f3efc82aaedc97be59f3f377c0d3f01906020840190611289565b506006546007819055610ab4903390610fd7565b6001600882604051610ac691906115d9565b908152604051908190036020019020805491151560ff1990921691909117905550565b6000818152600460205260409020805473ffffffffffffffffffffffffffffffffffffffff19166001600160a01b0384169081179091558190610b2b82610607565b6001600160a01b03167f8c5be1e5ebec7d5bd14f71427d1e84f3dd0314c0f7b2291e5b200ac8c7c3b92560405160405180910390a45050565b6000818152600260205260408120546001600160a01b0316610bdd5760405162461bcd60e51b815260206004820152602c60248201527f4552433732313a206f70657261746f7220717565727920666f72206e6f6e657860448201526b34b9ba32b73a103a37b5b2b760a11b606482015260840161042a565b6000610be883610607565b9050806001600160a01b0316846001600160a01b03161480610c235750836001600160a01b0316610c18846103b5565b6001600160a01b0316145b80610c5357506001600160a01b0380821660009081526005602090815260408083209388168352929052205460ff165b949350505050565b826001600160a01b0316610c6e82610607565b6001600160a01b031614610cea5760405162461bcd60e51b815260206004820152602960248201527f4552433732313a207472616e73666572206f6620746f6b656e2074686174206960448201527f73206e6f74206f776e0000000000000000000000000000000000000000000000606482015260840161042a565b6001600160a01b038216610d4c5760405162461bcd60e51b8152602060048201526024808201527f4552433732313a207472616e7366657220746f20746865207a65726f206164646044820152637265737360e01b606482015260840161042a565b610d57600082610ae9565b6001600160a01b0383166000908152600360205260408120805460019290610d8090849061169f565b90915550506001600160a01b0382166000908152600360205260408120805460019290610dae908490611673565b9091555050600081815260026020526040808220805473ffffffffffffffffffffffffffffffffffffffff19166001600160a01b0386811691821790925591518493918716917fddf252ad1be2c89b69c2b068fc378daa952ba7f163c4a11628f55a4df523b3ef91a4505050565b610e27848484610c5b565b610e3384848484611126565b6108885760405162461bcd60e51b815260206004820152603260248201527f4552433732313a207472616e7366657220746f206e6f6e20455243373231526560448201527f63656976657220696d706c656d656e7465720000000000000000000000000000606482015260840161042a565b606081610ec95750506040805180820190915260018152600360fc1b602082015290565b8160005b8115610ef35780610edd8161171d565b9150610eec9050600a8361168b565b9150610ecd565b60008167ffffffffffffffff811115610f1c57634e487b7160e01b600052604160045260246000fd5b6040519080825280601f01601f191660200182016040528015610f46576020820181803683370190505b5090505b8415610c5357610f5b60018361169f565b9150610f68600a86611738565b610f73906030611673565b60f81b818381518110610f9657634e487b7160e01b600052603260045260246000fd5b60200101907effffffffffffffffffffffffffffffffffffffffffffffffffffffffffffff1916908160001a905350610fd0600a8661168b565b9450610f4a565b6001600160a01b03821661102d5760405162461bcd60e51b815260206004820181905260248201527f4552433732313a206d696e7420746f20746865207a65726f2061646472657373604482015260640161042a565b6000818152600260205260409020546001600160a01b0316156110925760405162461bcd60e51b815260206004820152601c60248201527f4552433732313a20746f6b656e20616c7265616479206d696e74656400000000604482015260640161042a565b6001600160a01b03821660009081526003602052604081208054600192906110bb908490611673565b9091555050600081815260026020526040808220805473ffffffffffffffffffffffffffffffffffffffff19166001600160a01b03861690811790915590518392907fddf252ad1be2c89b69c2b068fc378daa952ba7f163c4a11628f55a4df523b3ef908290a45050565b60006001600160a01b0384163b1561127e57604051630a85bd0160e11b81526001600160a01b0385169063150b7a029061116a903390899088908890600401611624565b602060405180830381600087803b15801561118457600080fd5b505af19250505080156111b4575060408051601f3d908101601f191682019092526111b191810190611533565b60015b611264573d8080156111e2576040519150601f19603f3d011682016040523d82523d6000602084013e6111e7565b606091505b50805161125c5760405162461bcd60e51b815260206004820152603260248201527f4552433732313a207472616e7366657220746f206e6f6e20455243373231526560448201527f63656976657220696d706c656d656e7465720000000000000000000000000000606482015260840161042a565b805181602001fd5b6001600160e01b031916630a85bd0160e11b149050610c53565b506001949350505050565b828054611295906116e2565b90600052602060002090601f0160209004810192826112b757600085556112fd565b82601f106112d057805160ff19168380011785556112fd565b828001600101855582156112fd579182015b828111156112fd5782518255916020019190600101906112e2565b5061130992915061130d565b5090565b5b80821115611309576000815560010161130e565b600067ffffffffffffffff8084111561133d5761133d611778565b604051601f8501601f19908116603f0116810190828211818310171561136557611365611778565b8160405280935085815286868601111561137e57600080fd5b858560208301376000602087830101525050509392505050565b80356001600160a01b03811681146113af57600080fd5b919050565b6000602082840312156113c5578081fd5b610a2982611398565b600080604083850312156113e0578081fd5b6113e983611398565b91506113f760208401611398565b90509250929050565b600080600060608486031215611414578081fd5b61141d84611398565b925061142b60208501611398565b9150604084013590509250925092565b60008060008060808587031215611450578081fd5b61145985611398565b935061146760208601611398565b925060408501359150606085013567ffffffffffffffff811115611489578182fd5b8501601f81018713611499578182fd5b6114a887823560208401611322565b91505092959194509250565b600080604083850312156114c6578182fd5b6114cf83611398565b9150602083013580151581146114e3578182fd5b809150509250929050565b60008060408385031215611500578182fd5b61150983611398565b946020939093013593505050565b600060208284031215611528578081fd5b8135610a298161178e565b600060208284031215611544578081fd5b8151610a298161178e565b600060208284031215611560578081fd5b813567ffffffffffffffff811115611576578182fd5b8201601f81018413611586578182fd5b610c5384823560208401611322565b6000602082840312156115a6578081fd5b5035919050565b600081518084526115c58160208601602086016116b6565b601f01601f19169290920160200192915050565b600082516115eb8184602087016116b6565b9190910192915050565b600083516116078184602088016116b6565b83519083019061161b8183602088016116b6565b01949350505050565b60006001600160a01b0380871683528086166020840152508360408301526080606083015261165660808301846115ad565b9695505050505050565b602081526000610a2960208301846115ad565b600082198211156116865761168661174c565b500190565b60008261169a5761169a611762565b500490565b6000828210156116b1576116b161174c565b500390565b60005b838110156116d15781810151838201526020016116b9565b838111156108885750506000910152565b600181811c908216806116f657607f821691505b6020821081141561171757634e487b7160e01b600052602260045260246000fd5b50919050565b60006000198214156117315761173161174c565b5060010190565b60008261174757611747611762565b500690565b634e487b7160e01b600052601160045260246000fd5b634e487b7160e01b600052601260045260246000fd5b634e487b7160e01b600052604160045260246000fd5b6001600160e01b0319811681146117a457600080fd5b5056fea26469706673582212201a05e9490ed64233dfba0c0413ce805cd0c9bd36757ccfa14defc04a21123fa264736f6c63430008040033",
  "immutableReferences": {},
  "source": "// SPDX-License-Identifier: MIT\r\npragma solidity ^0.8.4;\r\nimport \"@openzeppelin/contracts/token/ERC721/ERC721.sol\";\r\n\r\ncontract Color is ERC721 {\r\n    string[] public colors;\r\n    uint256 public totalSupply = 0;\r\n\r\n    mapping(string => bool) public _colorExists;\r\n\r\n    constructor() ERC721(\"Color Picker\", \"CP\") {}\r\n\r\n    function mint(string memory _color) public {\r\n        require(!_colorExists[_color]);\r\n        colors.push(_color);\r\n        totalSupply = colors.length;\r\n        _mint(msg.sender, totalSupply);\r\n        _colorExists[_color] = true;\r\n    }\r\n}\r\n",
  "sourcePath": "F:\\truffle second layer\\optimism-box\\Truffle\\contracts\\arbitrum\\Color.sol",
  "compiler": {
    "name": "solc",
    "version": "0.8.4+commit.c7e474f2.Emscripten.clang"
  },
  "schemaVersion": "3.4.2",
  "updatedAt": "2021-10-04T06:50:50.267Z",
  "devdoc": {
    "kind": "dev",
    "methods": {
      "approve(address,uint256)": {
        "details": "See {IERC721-approve}."
      },
      "balanceOf(address)": {
        "details": "See {IERC721-balanceOf}."
      },
      "getApproved(uint256)": {
        "details": "See {IERC721-getApproved}."
      },
      "isApprovedForAll(address,address)": {
        "details": "See {IERC721-isApprovedForAll}."
      },
      "name()": {
        "details": "See {IERC721Metadata-name}."
      },
      "ownerOf(uint256)": {
        "details": "See {IERC721-ownerOf}."
      },
      "safeTransferFrom(address,address,uint256)": {
        "details": "See {IERC721-safeTransferFrom}."
      },
      "safeTransferFrom(address,address,uint256,bytes)": {
        "details": "See {IERC721-safeTransferFrom}."
      },
      "setApprovalForAll(address,bool)": {
        "details": "See {IERC721-setApprovalForAll}."
      },
      "supportsInterface(bytes4)": {
        "details": "See {IERC165-supportsInterface}."
      },
      "symbol()": {
        "details": "See {IERC721Metadata-symbol}."
      },
      "tokenURI(uint256)": {
        "details": "See {IERC721Metadata-tokenURI}."
      },
      "transferFrom(address,address,uint256)": {
        "details": "See {IERC721-transferFrom}."
      }
    },
    "version": 1
  },
  "userdoc": {
    "kind": "user",
    "methods": {},
    "version": 1
  }
}